{
  "transactions": [
    {
      "hash": "0xa95714c7697b422a05e588e773cc22ca7ffd92a7b0028b36a27619f44f25ce61",
      "transactionType": "CALL",
      "contractName": null,
      "contractAddress": "0xce0042b868300000d44a59004da54a005ffdcf9f",
      "function": "deploy(bytes,bytes32)",
      "arguments": [
        "0x60a0604052348015600e575f5ffd5b506040516103fa3803806103fa833981016040819052602b91603b565b6001600160a01b03166080526066565b5f60208284031215604a575f5ffd5b81516001600160a01b0381168114605f575f5ffd5b9392505050565b6080516103766100845f395f8181603d015261014701526103765ff3fe608060405234801561000f575f5ffd5b5060043610610034575f3560e01c806358daf6e91461003857806377a1736b14610088575b5f5ffd5b61005f7f000000000000000000000000000000000000000000000000000000000000000081565b60405173ffffffffffffffffffffffffffffffffffffffff909116815260200160405180910390f35b61009b610096366004610249565b61009d565b005b5f8190036100d7576040517f8a48e94800000000000000000000000000000000000000000000000000000000815260040160405180910390fd5b805f5b81811015610243575f8484838181106100f5576100f56102ba565b905060200201602081019061010a91906102e7565b6040517f095ea7b300000000000000000000000000000000000000000000000000000000815273ffffffffffffffffffffffffffffffffffffffff7f0000000000000000000000000000000000000000000000000000000000000000811660048301527fffffffffffffffffffffffffffffffffffffffffffffffffffffffffffffffff60248301529192505f9183169063095ea7b3906044016020604051808303815f875af11580156101c0573d5f5f3e3d5ffd5b505050506040513d601f19601f820116820180604052508101906101e49190610321565b905080610239576040517fe5a0a42f00000000000000000000000000000000000000000000000000000000815273ffffffffffffffffffffffffffffffffffffffff8316600482015260240160405180910390fd5b50506001016100da565b50505050565b5f5f6020838503121561025a575f5ffd5b823567ffffffffffffffff811115610270575f5ffd5b8301601f81018513610280575f5ffd5b803567ffffffffffffffff811115610296575f5ffd5b8560208260051b84010111156102aa575f5ffd5b6020919091019590945092505050565b7f4e487b71000000000000000000000000000000000000000000000000000000005f52603260045260245ffd5b5f602082840312156102f7575f5ffd5b813573ffffffffffffffffffffffffffffffffffffffff8116811461031a575f5ffd5b9392505050565b5f60208284031215610331575f5ffd5b8151801515811461031a575f5ffdfea26469706673582212205d13c51eec913380da4cdb6f214385fe67fdd65ffbdcf0713ffb86ef49fda2dd64736f6c634300081b0033000000000000000000000000fb63c771dd42f5f8c949c69cddb15afe585d6889",
        "0x0000000000000000000000000000000000000000000000000000000000000001"
      ],
      "transaction": {
        "from": "0xf78f0f828ed32f6dd135af03fba362a290b6f860",
        "to": "0xce0042b868300000d44a59004da54a005ffdcf9f",
        "gas": "0x14c575",
        "value": "0x0",
        "input": "0x4af63f0200000000000000000000000000000000000000000000000000000000000000400000000000000000000000000000000000000000000000000000000000000001000000000000000000000000000000000000000000000000000000000000041a60a0604052348015600e575f5ffd5b506040516103fa3803806103fa833981016040819052602b91603b565b6001600160a01b03166080526066565b5f60208284031215604a575f5ffd5b81516001600160a01b0381168114605f575f5ffd5b9392505050565b6080516103766100845f395f8181603d015261014701526103765ff3fe608060405234801561000f575f5ffd5b5060043610610034575f3560e01c806358daf6e91461003857806377a1736b14610088575b5f5ffd5b61005f7f000000000000000000000000000000000000000000000000000000000000000081565b60405173ffffffffffffffffffffffffffffffffffffffff909116815260200160405180910390f35b61009b610096366004610249565b61009d565b005b5f8190036100d7576040517f8a48e94800000000000000000000000000000000000000000000000000000000815260040160405180910390fd5b805f5b81811015610243575f8484838181106100f5576100f56102ba565b905060200201602081019061010a91906102e7565b6040517f095ea7b300000000000000000000000000000000000000000000000000000000815273ffffffffffffffffffffffffffffffffffffffff7f0000000000000000000000000000000000000000000000000000000000000000811660048301527fffffffffffffffffffffffffffffffffffffffffffffffffffffffffffffffff60248301529192505f9183169063095ea7b3906044016020604051808303815f875af11580156101c0573d5f5f3e3d5ffd5b505050506040513d601f19601f820116820180604052508101906101e49190610321565b905080610239576040517fe5a0a42f00000000000000000000000000000000000000000000000000000000815273ffffffffffffffffffffffffffffffffffffffff8316600482015260240160405180910390fd5b50506001016100da565b50505050565b5f5f6020838503121561025a575f5ffd5b823567ffffffffffffffff811115610270575f5ffd5b8301601f81018513610280575f5ffd5b803567ffffffffffffffff811115610296575f5ffd5b8560208260051b84010111156102aa575f5ffd5b6020919091019590945092505050565b7f4e487b71000000000000000000000000000000000000000000000000000000005f52603260045260245ffd5b5f602082840312156102f7575f5ffd5b813573ffffffffffffffffffffffffffffffffffffffff8116811461031a575f5ffd5b9392505050565b5f60208284031215610331575f5ffd5b8151801515811461031a575f5ffdfea26469706673582212205d13c51eec913380da4cdb6f214385fe67fdd65ffbdcf0713ffb86ef49fda2dd64736f6c634300081b0033000000000000000000000000fb63c771dd42f5f8c949c69cddb15afe585d6889000000000000",
        "nonce": "0x1",
        "chainId": "0x1"
      },
      "additionalContracts": [
        {
          "transactionType": "CREATE2",
          "address": "0x49b7cb2b02502e8380664a173fa021b8cfbee97a",
          "initCode": "0x60a0604052348015600e575f5ffd5b506040516103fa3803806103fa833981016040819052602b91603b565b6001600160a01b03166080526066565b5f60208284031215604a575f5ffd5b81516001600160a01b0381168114605f575f5ffd5b9392505050565b6080516103766100845f395f8181603d015261014701526103765ff3fe608060405234801561000f575f5ffd5b5060043610610034575f3560e01c806358daf6e91461003857806377a1736b14610088575b5f5ffd5b61005f7f000000000000000000000000000000000000000000000000000000000000000081565b60405173ffffffffffffffffffffffffffffffffffffffff909116815260200160405180910390f35b61009b610096366004610249565b61009d565b005b5f8190036100d7576040517f8a48e94800000000000000000000000000000000000000000000000000000000815260040160405180910390fd5b805f5b81811015610243575f8484838181106100f5576100f56102ba565b905060200201602081019061010a91906102e7565b6040517f095ea7b300000000000000000000000000000000000000000000000000000000815273ffffffffffffffffffffffffffffffffffffffff7f0000000000000000000000000000000000000000000000000000000000000000811660048301527fffffffffffffffffffffffffffffffffffffffffffffffffffffffffffffffff60248301529192505f9183169063095ea7b3906044016020604051808303815f875af11580156101c0573d5f5f3e3d5ffd5b505050506040513d601f19601f820116820180604052508101906101e49190610321565b905080610239576040517fe5a0a42f00000000000000000000000000000000000000000000000000000000815273ffffffffffffffffffffffffffffffffffffffff8316600482015260240160405180910390fd5b50506001016100da565b50505050565b5f5f6020838503121561025a575f5ffd5b823567ffffffffffffffff811115610270575f5ffd5b8301601f81018513610280575f5ffd5b803567ffffffffffffffff811115610296575f5ffd5b8560208260051b84010111156102aa575f5ffd5b6020919091019590945092505050565b7f4e487b71000000000000000000000000000000000000000000000000000000005f52603260045260245ffd5b5f602082840312156102f7575f5ffd5b813573ffffffffffffffffffffffffffffffffffffffff8116811461031a575f5ffd5b9392505050565b5f60208284031215610331575f5ffd5b8151801515811461031a575f5ffdfea26469706673582212205d13c51eec913380da4cdb6f214385fe67fdd65ffbdcf0713ffb86ef49fda2dd64736f6c634300081b0033000000000000000000000000fb63c771dd42f5f8c949c69cddb15afe585d6889"
        }
      ],
      "isFixedGasLimit": false
    }
  ],
  "receipts": [
    {
      "status": "0x1",
      "cumulativeGasUsed": "0xc6633a",
      "logs": [],
      "logsBloom": "0x00000000000000000000000000000000000000000000000000000000000000000000000000000000000000000000000000000000000000000000000000000000000000000000000000000000000000000000000000000000000000000000000000000000000000000000000000000000000000000000000000000000000000000000000000000000000000000000000000000000000000000000000000000000000000000000000000000000000000000000000000000000000000000000000000000000000000000000000000000000000000000000000000000000000000000000000000000000000000000000000000000000000000000000000000000000",
      "type": "0x2",
      "transactionHash": "0xa95714c7697b422a05e588e773cc22ca7ffd92a7b0028b36a27619f44f25ce61",
      "transactionIndex": "0x72",
      "blockHash": "0xf95e107f0193cf36d071c54471c1ff7ea0507ee2a832ee77ce15abdf4e36dd04",
      "blockNumber": "0x15a7a36",
      "gasUsed": "0x1476e7",
      "effectiveGasPrice": "0x13162e18",
      "from": "0xf78f0f828ed32f6dd135af03fba362a290b6f860",
      "to": "0xce0042b868300000d44a59004da54a005ffdcf9f",
      "contractAddress": null
    }
  ],
  "libraries": [],
  "pending": [],
  "returns": {},
  "timestamp": 1749951734,
  "chain": 1,
  "commit": "fce3679"
}